:020000040800F2
:100000002808002089010008332500087B1B000810
:10001000312500088F0200082D2B00080000000089
:10002000000000000000000000000000A3270008FE
:100030009102000800000000A1270008A527000881
:10004000A3010008A3010008A3010008A301000800
:10005000A3010008A3010008A3010008A3010008F0
:10006000A3010008A3010008A3010008A3010008E0
:10007000A3010008A3010008A3010008A3010008D0
:10008000A3010008A3010008A3010008A3010008C0
:10009000A3010008A3010008A3010008A3010008B0
:1000A000A301000809280008A3010008A301000813
:1000B000A3010008A3010008A3010008A301000890
:1000C000A3010008A3010008A3010008A301000880
:1000D000A3010008A3010008A3010008212B0008C8
:1000E000A3010008A3010008A301000800F002F822
:1000F00000F03AF80AA090E8000C82448344AAF188
:100100000107DA4501D100F02FF8AFF2090EBAE885
:100110000F0013F0010F18BFFB1A43F0010318473B
:100120009C350000BC350000103A24BF78C878C167
:10013000FAD8520724BF30C830C144BF04680C60ED
:10014000704700000023002400250026103A28BF35
:1001500078C1FBD8520728BF30C148BF0B60704739
:100160001FB51FBD10B510BD00F05CF81146FFF7BC
:10017000F7FF02F021FD00F07AF803B4FFF7F2FF79
:1001800003BC00F07DF8000009488047094800479B
:10019000FEE7FEE7FEE7FEE7FEE7FEE7FEE7FEE737
:1001A000FEE7FEE704480549054A064B7047000094
:1001B00005280008ED00000828020020280800207B
:1001C00028040020280400204FF0000200B5134648
:1001D00094469646203922BFA0E80C50A0E80C5067
:1001E000B1F12001BFF4F7AF090728BFA0E80C5018
:1001F00048BF0CC05DF804EB890028BF40F8042B11
:1002000008BF704748BF20F8022B11F0804F18BF7D
:1002100000F8012B704770477047704700487047DF
:10022000C40100207546FFF7F9FFAE460500694698
:10023000534620F00700854618B020B5FFF7B2FFFF
:10024000BDE820404FF000064FF000074FF00008D7
:100250004FF0000B21F00701AC46ACE8C009ACE858
:10026000C009ACE8C009ACE8C0098D46704710B5BC
:100270000446AFF300802046BDE81040FFF77DBF85
:1002800001491820ABBEFEE7260002007047FEE7DA
:10029000704772B6FEE7000010B503460C460448EE
:1002A00002F082FC1860034802F07EFC206010BD62
:1002B000DC0000202401002010B590F8211000225D
:1002C000022905D00421816380F82020012010BD7F
:1002D00001680B6823F00E030B6001680B6823F0C4
:1002E00001030B6090F84030012404FA03F1C36B62
:1002F000596080F8214080F82020104610BD000091
:1003000010B590F821100024022903D00421816344
:1003100001243DE001680A6822F00E020A600168CB
:100320000A6822F001020A601A4A0168914201D16A
:10033000012121E0174A1432914201D110211BE022
:10034000144A2832914201D1891515E0114A3C32F4
:10035000914201D189140FE00E4A5032914202D1EC
:100360004FF4803108E00B4A6432914202D14FF4DD
:10037000801101E04FF08071064A083A5160012176
:1003800080F82110002180F82010416B01B18847CE
:10039000204610BD0800024070B5044600F0F4F895
:1003A0000546601C02D004480078044400F0ECF8D4
:1003B000401BA042FAD370BD1C0000202DE9F84F6D
:1003C000DFF8A4910024A9F1040B23464FF00F0895
:1003D00009F1040AABF1040EBEE00127A7403A4040
:1003E000BA4272D1DFF884C14D68A5EB0C066545B1
:1003F0002BD00DDC032D34D005DC35B3012D19D005
:10040000022D2FD11BE0112D16D0122D2AD119E06B
:10041000B6F5881F19D006DCB6F5803F15D0B6F5C5
:10042000801F1FD111E0B6F5001F0ED0B6F5041FD6
:1004300018D10AE0CB6815E0CB681B1D12E0CB6831
:1004400008330FE0CB680C330CE08B682BB1012B29
:100450004FF0080303D0476104E0042302E0076182
:1004600000E00023FF2A01D8064601E000F104065F
:100470004FEA840501D9A5F12005376808FA05FC83
:1004800027EA0C0703FA05F547EA050737604D68C8
:10049000ED0060D5364DAE6946F00106AE61AD693E
:1004A00024F0030605F001050095324D7719BE686A
:1004B000A5072D0F08FA05FC26EA0C06DFF8B8C0E0
:1004C000604503D14FF0000C17E044E0DFF8ACC00A
:1004D000604502D14FF0010C0FE0DFF8A4C0604589
:1004E00002D14FF0020C08E0DFF898C0604502D15D
:1004F0004FF0030C01E04FF0040C0CFA05FC4CEA41
:10050000060CC7F808C04D68D9F80060ED024D46EA
:1005100001D5164300E096432E604D68DAF800607E
:10052000AD02554601D5164300E096432E604D6856
:10053000DBF80060AD035D4601D5164300E096434D
:100540002E604D68DEF80060ED03754601D5164358
:1005500000E096432E60641C0A6832FA04F57FF4CA
:100560003CAFBDE8F88F0000080401400000111006
:10057000001002400000014000080140000C014052
:1005800000100140001401400148806870470000DD
:100590001C00002070B5040025D094F83D00002513
:1005A00020B984F83C50204600F014FB242084F845
:1005B0003D002068016821F00101016020680168A8
:1005C00041F4004101602068016821F400410160AC
:1005D00000F078FC4D4B6168994201D84C4900E02D
:1005E0004C49884201D2012070BD4B492268B0FBC2
:1005F000F1F1566826F03F060E43566062689A4253
:1006000006D94FF4967251434FF47A72B1FBF2F16E
:100610002268491C166A26F03F0631431162616860
:10062000994210D84900401EB0FBF1F2521CC2F3AF
:100630000B02042A01D2042022E0B0FBF1F0401C9E
:10064000C0F30B001CE0A268F2B301EBC10303EBA3
:100650000116431EB3FBF6F35B1C43F480431B05FA
:1006600049D092B301EBC10202EB0111401EB0FB75
:10067000F1F0401CC0F30B0040F4804040F4004017
:100680002168CA694CF6FF739A431043C861D4E9E4
:10069000071001432068026822F0C0021143016084
:1006A000D4E9030101432068826848F2FF339A438A
:1006B00011438160D4E9051001432068C26822F02B
:1006C000FF021143C16001E00EE016E020680168FE
:1006D00041F0010101602564202084F83D0025637C
:1006E00084F83E50002070BD01EB4106431EB3FB71
:1006F000F6F35B1CB3E70120C2E701EB4101401EAA
:10070000B0FBF1F0401CC0F30B00B7E7A08601007E
:1007100080841E0000093D0040420F002DE9F84F83
:100720001F4690468A460446DDF82890FFF72CFFC6
:10073000054694F83D0020287FD119230122404925
:100740002046009501F07DFB002876D194F83C000E
:10075000012872D0012084F83C0020680168C90794
:1007600003D1016841F0010101602068016821F4B2
:1007700000610160212084F83D00102084F83E00D3
:1007800000262664C4F824806785608D20852D4866
:10079000E0622B464A465146204601F007FA90B9DE
:1007A000206841698069009036E02A464946204623
:1007B00001F022FC50B1206C042804D120680168AB
:1007C00041F4007101600120BDE8F88F606A216882
:1007D00000780861626A521C6262608D401E60850A
:1007E000208D401E80B2208521684B69DB435B076A
:1007F0000BD450B110780861606A401C6062608D53
:10080000401E6085208D401E20852A464946204690
:1008100001F0ECFA0028CED1208D0028C5D154F883
:100820003D0B016841F400710160202004F81E09AD
:10083000E67766770020C7E7FFE70220C4E70000FD
:10084000020010000000FFFF2DE9FF4F83B00026DB
:10085000DDE910799A4693460446DDF84880009613
:10086000FFF792FE054694F83D0020287CD119231D
:10087000012288492046009501F0E3FA0028F5D1CD
:1008800094F83C0001286FD0012084F83C002068D7
:100890000168C90703D1016841F0010101602068C6
:1008A000016821F400610160222084F83D004020AD
:1008B00084F83E0026646762A4F82A90608D208543
:1008C0007548E062CDE9008553465A4620460499B2
:1008D00001F0BAF900287CD1208DDFF8C0912027E3
:1008E00068B1012814D00228206801681ED041F4A4
:1008F000806101602068416980690090BCE02068E7
:10090000416981690091016841F400710160B3E0BF
:100910002068016821F48061016072B62068416935
:1009200081690091016841F400710AE041F40061BD
:10093000016072B62068416981690091016821F403
:100940008061016062B697E0032865D801280CD069
:10095000022843464FF000024946204600950BD03E
:1009600001F06FFAA8BB0CE091E02A464146204610
:1009700001F008FB68BB72E001F063FA48BB72B695
:1009800033E02068016821F48061016072B620685C
:100990000069616A0870606A401C6062208D401EB8
:1009A0002085608D401E60853D4846F2A811006894
:1009B000B0FBF1F0C0EBC00000EB80000090401EE7
:1009C000009007D020684069C04340070DD50098CB
:1009D000F5E727E044F8306F6773A673206940F0AD
:1009E0002000206162B626731CE02068016841F493
:1009F0000071016020680069616A0870606A401CCB
:100A00006062218D491E2185618D491E618562B616
:100A100021680969017026E02A464146204601F016
:100A2000B1FA18B1012007B0BDE8F08F2068006965
:100A3000616A0870606A401C6062208D401E81B24D
:100A40002185608D401E608520684269D24352072F
:100A500012D4032903D1016821F480610160206868
:100A60000069616A0870606A401C6062208D401EE7
:100A70002085608D401E6085208D00287FF464AF46
:100A800084F83D7084F83E6084F83C60CBE7022037
:100A9000C9E70000020010000000FFFF0400010091
:100AA000280000202DE9FF4F83B09A46DDE9119719
:100AB00093460446DDF84080FFF766FD054694F84E
:100AC0003D0020287FD1192301224049204600956E
:100AD00001F0B7F9002876D194F83C00012872D0D3
:100AE000012084F83C0020680168C90703D101682F
:100AF00041F0010101602068016821F4006101609A
:100B0000212084F83D00402084F83E000026266421
:100B1000C4F82480A4F82A90608D20852C48E062D7
:100B2000CDE9007553465A462046049901F00AF96A
:100B300070B930E02A463946204601F05DFA58B1D6
:100B4000206C042804D12068016841F40071016020
:100B5000012007B0BDE8F08F606A21680078086165
:100B6000626A521C6262208D401E80B22085618DB7
:100B7000491E618521684B69DB435B070BD468B173
:100B800010780861606A401C6062208D401E2085DC
:100B9000608D401E6085208D0028CBD12A463946C5
:100BA000204601F023F90028CAD154F83D0B016812
:100BB00041F400710160202004F81E09E677667791
:100BC0000020C6E7FFE70220C3E700000200100094
:100BD0000000FFFF30B585B0002100910191029126
:100BE000039105460068194988422CD11849486884
:100BF00040F0E06040F002004860164CA06940F010
:100C00000800A061A069694600F0080004904FF454
:100C10004070009012200190032003900E48FFF7CF
:100C2000CDFBE06940F40010E061E06900F40010E1
:100C300004902868016841F4004101602868016857
:100C400021F40041016005B030BD000000540040B7
:100C50000000014000100240000C01400248816881
:100C600002781144816070471C000020074810B5CD
:100C7000016841F010010160032000F075F80F20B9
:100C800000F006F800F024F8002010BD002002401B
:100C900070B50D4D04464FF47A712878B1FBF0F031
:100CA0000A490968B1FBF0F000F0DEFA48B9102CEF
:100CB00007D200222146501E00F036F800206C605A
:100CC00070BD012070BD00001C0000202800002025
:100CD0000C4808B5816941F001018161816901F029
:100CE00001010091C16941F08051C161C0690649AB
:100CF00000F080500090486820F0E06040F0007004
:100D0000486008BD0010024000000140002809DBD7
:100D100000F01F02012191404009800000F1E02015
:100D2000C0F8001170470000F0B40E4B1B68C3F30D
:100D30000223C3F10704042C00D904241D1D072D30
:100D400001D2002300E0DB1E012606FA04F56D1E29
:100D50000D409D409E40761E164045EA0601F0BCBF
:100D600001F0E5BE0CED00E0064A00F00701106856
:100D70004FF6FF03184040EA012003490843106082
:100D8000704700000CED00E00000FA052DE9F04787
:100D90000D46040067D0DFF81881D8F8000000F095
:100DA0000700A8420CD2D8F8001021F0070129430F
:100DB000C8F80010D8F8000000F00700A84252D18F
:100DC00020683C4E810712D5400703D5706840F477
:100DD000E06070602078000703D5706840F46050D0
:100DE00070607068A16820F0F0000843706020789F
:100DF000C00727D06068012810D03168022810D0C1
:100E0000890700292FDA716821F00301014371601D
:100E1000FFF7BAFB074641F288390CE031688903D5
:100E2000EFE78901EDE7FFF7AFFBC11B494502D9A9
:100E30000320BDE8F0877068616800F00C00B0EB3B
:100E4000810FF0D1D8F80010404601F00701A94207
:100E50000BD9016821F0070129430160006800F007
:100E60000700A84201D00120E3E72078400705D51C
:100E70007068E16820F4E060084370602078000743
:100E800006D57068216920F4605040EAC1007060A6
:100E900000F038F87168084AC1F30311515CC8408A
:100EA0000649086006480068FFF7F2FE0020C0E728
:100EB0000020024000100240A42E0008280000205C
:100EC000200000200448054900684968044AC1F32D
:100ED0000221515CC84070472800002000100240E9
:100EE000B42E00080448054900684968044AC1F363
:100EF000C221515CC8407047280000200010024009
:100F0000B42E00080E4B59680E4801F00C02042A5A
:100F100011D0082A0FD10C48C1F38342C903805C69
:100F20000AD55968084AC1F34041921E515C054AEE
:100F30005043B0FBF1F0704704494843704700004C
:100F40000010024000127A00942E000800093D00B3
:100F50002DE9F84F04006FD02078BE4DC00747D070
:100F60006868C0F38100012807D06868C0F3810079
:100F7000022809D16868C00306D52868800337D5E0
:100F800060680028E7D033E06068B0F5803F0BD0A0
:100F900010B1B0F5A02F11D0286820F4803028605F
:100FA000286820F4802002E0286840F4803028601F
:100FB000606888B1FFF7E8FA064609E0286840F45F
:100FC00080202860F0E7FFF7DFFA801B642873D8E1
:100FD00028688003F7D50BE0FFF7D6FA064604E051
:100FE000FFF7D2FA801B6428F1D828688003F7D471
:100FF0002078DFF8648280074FF0010A4FF0000983
:1010000039D5686810F00C0F07D06868C0F381000C
:10101000022809D16868C00306D42868800714D55F
:101020002069012808D110E02069B0B1C8F800A0FB
:10103000FFF7AAFA064605E007E1FFF7A5FA801BCD
:101040000228C4D828688007F7D52868616920F08D
:10105000F80040EAC10028600DE0C8F80090FFF7F2
:1010600093FA064604E0FFF78FFA801B022823D884
:1010700028688007F7D4207800072CD57748A16925
:10108000D9B1C0F800A0FFF77FFA064604E0FFF7E9
:101090007BFA801B02280FD8686A8007F7D5704852
:1010A0004FF4FA510068B0FBF1F0009000BF0098D7
:1010B000411E0091FAD20EE07CE0C0F80090FFF7EC
:1010C00063FA064604E0FFF75FFA801B022871D836
:1010D000686A8007F7D4207840075BD5E869002765
:1010E000C00008D4E86940F08050E861E869012751
:1010F00000F0805000905B480168C90511D4016878
:10110000834641F480710160FFF73EFA064604E031
:10111000FFF73AFA801B64284CD8DBF80000C005C2
:10112000F6D5E06801280AD008B1052813D0286A4E
:1011300020F001002862286A20F0040002E0286AFA
:1011400040F001002862E06841F2883B88B1FFF777
:101150001BFA064609E0286A40F004002862EEE720
:10116000FFF712FA811B59455BD8286A8007F7D52B
:101170000BE0FFF709FA064604E0FFF705FA811BCA
:1011800059454ED8286A8007F7D41FB1E86920F086
:101190008050E861E069A8B36968C1F38101022960
:1011A00046D00228484606D0C8F86000FFF7ECF9A0
:1011B000044639E035E04746C8F86000FFF7E4F937
:1011C000064604E0FFF7E0F9801B022829D82868CA
:1011D0008001F7D4206AB0F5803F05D16868A16826
:1011E00020F4003008436860D4E9080108436968C6
:1011F00021F4741108436860C7F860A0FFF7C4F9D0
:10120000044605E023E0FFF7BFF9001B022808D8D9
:1012100028688001F7D51AE0FFF7B6F9001B02280D
:1012200002D90320BDE8F88F28688001F4D40EE0CD
:101230000128F7D06868226A00F48031914204D115
:10124000616A00F47010884201D00120EAE70020B2
:10125000E8E70000001002400000424280044242E1
:10126000280000200070004010B5401EB0F1807FC3
:1012700001D3012010BD4FF0E02460610F21601701
:1012800001F055FC0020A06107202061002010BD66
:101290007047704770B590F83C20012A26D0012590
:1012A00080F83C50022280F83D2002685368946820
:1012B00023F070060B68334353600D4B02689A426B
:1012C00008D0B2F1804F05D00A4B9A4202D00A4BA7
:1012D0009A4204D1496824F080031943916080F850
:1012E0003D50002180F83C10084670BD022070BDC2
:1012F000002C0140000400400008004010B504002C
:1013000003D094F83D0010B107E0012010BD00208B
:1013100084F83C00204600F01FF8022084F83D00CD
:10132000211D206801F076FA012084F8460084F837
:101330003E0084F83F0084F8400084F8410084F8BF
:10134000420084F8430084F8440084F8450084F89F
:101350003D00002010BD000008B500680B49884220
:1013600012D10B48816941F40061816180690022DA
:1013700000F40060009011461920FFF7D5FCBDE88D
:1013800008401920FFF7C2BC08BD0000002C014036
:101390000010024090F83D10012901D00120704753
:1013A000022180F83D100168CA6842F00102CA605B
:1013B00000680B49884208D0B0F1804F05D0094938
:1013C000884202D00849884204D1816801F00701AF
:1013D000062903D0016841F0010101600020704737
:1013E000002C0140000400400008004070B5044695
:1013F00090F83C000025012817D0012684F83C60B5
:10140000022084F83D002068826822F0770222F4EE
:101410007F4282600868502838D00DDC20284FD0E9
:1014200005DC90B3102811D14AE0022070BD3028AD
:1014300046D040280AD13BE060282FD070280DD03C
:10144000B0F5805F03D0B0F5005F12D0012584F8BD
:101450003D60002084F83C00284670BDCB68D1E98F
:101460000121206801F01FFA2068816841F07701AE
:1014700009E0CB68D1E90121206801F014FA206865
:10148000816841F480418160E1E719E0CA684968F8
:10149000206801F01AFA5021206806E0CA684968FD
:1014A000206801F023FA6021206801F006FACEE7F7
:1014B000CA684968206801F008FA40212068F4E70A
:1014C000226801461046F0E72DE9F0410D46040080
:1014D00003D094F83D0018B108E00120BDE8F08188
:1014E000002084F83C00204600F040F8022084F8F8
:1014F0003D002068816844F2070291438160211D0C
:10150000206801F087F9206881688269066A2B6883
:10151000AF690B4340F203318A4342EA0722A968CC
:10152000EF6911434FF6FC429143EA6841EA072113
:101530000A4329692F6A090141EA073111436A68A0
:101540006D6926F0220646EA05152A438360206865
:10155000816154F8460B0262012004F81F09E0750E
:101560002076E0762077A0750020B7E700B585B03B
:101570000021009101910291039101681B48012211
:10158000B1F1804F1BD01A4B994216D1C16941F07D
:101590000401C161C16901F004010491816941F054
:1015A000080181618069694600F008000490C0204C
:1015B000009002920F48FEF701FF05B000BDC1691F
:1015C00041F00101C161C16901F00101049181692A
:1015D00041F0040181618069694600F004000490D3
:1015E0000320009002920448E5E70000001002404A
:1015F00000080040000C01400008014070B590F860
:101600003E50044690F83F3090F8422090F8430056
:10161000022621B104290BD0012D16D10FE0012D96
:1016200013D1012A11D184F83E6084F8426016E09B
:10163000012B0AD1012808D184F83F600DE0012B6D
:1016400003D1012A01D1012801D0012070BD84F805
:101650003E6084F83F6084F8426084F8436091B152
:10166000042904D001220021206801F00FF9012291
:101670000421206801F00AF92068016841F00101A5
:101680000160002070BD012200212068F2E7704750
:101690002DE9F04104460068C66805694FF000076F
:1016A000A90713D5B10711D5F91E016101202077D3
:1016B000206880698007204602D0FFF7E8FF04E039
:1016C00000F07EF8204600F07CF82777680716D5F2
:1016D000700714D521686FF004000861022020779C
:1016E0002068806910F4407F204602D0FFF7CFFFCA
:1016F00004E000F065F8204600F063F8277728073B
:1017000015D5300713D521686FF008000861042053
:1017100020772068C0698007204602D0FFF7B7FF16
:1017200004E000F04DF8204600F04BF82777E8067B
:1017300016D5F00614D521686FF010000861082056
:1017400020772068C06910F4407F204602D0FFF760
:101750009EFF04E000F034F8204600F032F82777CE
:10176000E80708D0F00706D021686FF00100086193
:10177000204600F027F8280608D5300606D521684F
:101780006FF0800008612046FFF782FD680608D5EB
:10179000700606D521686FF040000861204600F011
:1017A0001DF8A8060AD5B00608D521686FF02000FC
:1017B00008612046BDE8F041FFF76BBDBDE8F08150
:1017C000704770470349884203D10349081FFEF759
:1017D00063BD7047940000203000002070477047C0
:1017E00070470000F8B5016804460868CA684B698C
:1017F00010F00F0F4FF0000559D003F0010602F46E
:101800009077374365D0C10705D0D10503D5616C0A
:1018100041F001016164410705D5D90703D0616C2E
:1018200041F002016164810705D5D90703D0616CDD
:1018300041F004016164010707D502F02001314342
:1018400003D0616C41F008016164616C00293AD0F9
:10185000800604D5900602D5204601F088F820685D
:101860004069616CC0F38010090700D460B3204662
:1018700001F056F820684069400621D520681430F0
:1018800050E8001F21F0400140E80012002AF5D185
:10189000E06BA8B16D494163E06BFEF731FD0028B4
:1018A00011D0E06B416B01B0BDE8F0400847830602
:1018B0000FD593060DD52046BDE8F84001F057B886
:1018C0002046FFF78DFFF8BD2046FFF789FF6564CE
:1018D000F8BD266B2023012E7CD1C6067AD5D6060C
:1018E00078D508684868009048694FF002064006BD
:1018F00040D5E16B086840680004000CE8D0A28D78
:101900008242E5D9E085886920282DD020680C30F6
:1019100050E8001F21F4807140E80012002AF5D140
:101920002068143050E8001F21F0010140E8001247
:10193000002AF5D12068143050E8001F21F0400142
:1019400040E80012002AF5D184F84230256320686F
:101950000C3050E8001F21F0100140E80012002A6E
:10196000F5D1E06BFEF7A8FC6663A08DE18D401A0F
:1019700081B22AE0A08DE18D401A81B2E08D00286D
:10198000A6D00029A4D020680C3050E8002F22F403
:10199000907240E80027002FF5D12068143050E8FD
:1019A000002F22F0010240E80027002FF5D184F833
:1019B0004230256320680C3050E8002F22F01002DE
:1019C00040E80023002BF5D166632046FFF707FFB0
:1019D000F8BDFFE705062BD5150629D594F841007B
:1019E0002128F5D1A068B0F5805F01D12069B0B1A0
:1019F000206A411C2162216800784860E08C401E0A
:101A00000004000CE084E3D12068C16821F080016B
:101A1000C1602068C16841F04001C160D8E7206A18
:101A20000088C0F308004860206A801C2062E5E757
:101A30004006CDD55006CBD5CA68204622F04002DC
:101A4000CA6084F8413000F097F8C1E71129000816
:101A500070B5040004D094F84100002510B106E0F0
:101A6000012070BD84F84050204600F023F8242067
:101A700084F841002068C16821F40051C16020460B
:101A800000F0D6FF2068016921F4904101612068CF
:101A9000416921F02A0141612068C16841F4005187
:101AA000C1606564202084F8410084F842006563C9
:101AB000002070BD30B585B00024009401940294DC
:101AC00003940068184988422CD11848C16941F430
:101AD0008021C161C16901F480210491816941F0D3
:101AE000080181618069124D00F0080004904FF4F4
:101AF00080600090022001900320039069462846F0
:101B0000FEF75CFCE814CDE900046946284602941F
:101B1000FEF754FC002211462720FFF705F9272085
:101B2000FFF7F4F805B030BD004800400010024057
:101B3000000C014090F84230202B01D00220704769
:101B400021B11AB10023036300F0CEBF012070471A
:101B5000064810B50178064800F0F9FFBDE81040CE
:101B6000012202490348FFF7E5BF000018000020EA
:101B7000B40100206C0100207047FEE701684A694B
:101B8000D24352050FD46FF480624A61002140F8BD
:101B9000301F202242738173026942F00402026105
:101BA000017301207047002070470000F8B504461B
:101BB000C06A1E460D461746082807D0012805D0E2
:101BC00010F5803F02D0206B122804D120680168F4
:101BD00041F480710160134600224FF0011120464C
:101BE000009600F02EF940B120680068C00502D5CB
:101BF0004FF4007020640320F8BD2069B0F5804FD9
:101C00000ED00620216800EAD51040F0F0000861EF
:101C100033463A460B49204600F057F978B902E0BE
:101C200005F0FE0000E0E8B221680861054933468E
:101C30003A46891F204600F048F90028DCD00120F0
:101C4000F8BD0000080001002DE9F84F04460068C7
:101C500089460B9E01689846174641F480610160F1
:101C60002068016841F48071016000964FF0011B0B
:101C70000022594620460A9B00F0E3F84FF4007A10
:101C800040B120680068C00501D5C4F840A0032019
:101C9000BDE8F88F216809F0FE0008613346284945
:101CA00020460A9A00F011F9F0BB2068416980696A
:101CB0000090324620460A9900F09EF940B1206C0F
:101CC00004283AD12068016841F40071016034E0D1
:101CD000FDB2B8F1010F09D02168380A0861324617
:101CE00020460A9900F088F90028E8D120680561AB
:101CF000324620460A9900F07FF90028DFD120689B
:101D0000016841F480710160009600225946204626
:101D10000A9B00F096F80028B3D1216809F0FF0073
:101D200040F00100086100E007E033460449204626
:101D30000A9A00F0CAF80028AAD00120A8E70000FB
:101D4000020001002DE9F843044600680D46DDE974
:101D5000089701689846164641F4807101604B4629
:101D600000224FF001112046009700F06AF848B1B8
:101D700020680068C00502D54FF40070206403207D
:101D8000BDE8F883216805F0FE0008613B464A463D
:101D90001549204600F099F888B9206841698069A2
:101DA00000903A464946204600F026F948B1206C9A
:101DB000042804D12068016841F400710160012009
:101DC000DEE7F5B2B8F1010F09D02168300A0861E9
:101DD0003A464946204600F00FF90028E7D120682E
:101DE00005610020CCE700000200010070B5164636
:101DF0000D4604461EE02046FFF7C0FE08B1012054
:101E000070BD681C16D0FEF7BFFB801BA84200D82F
:101E100085B920684069C04340070BD5002044F8CD
:101E2000300F20216173A073216941F020012161ED
:101E30002073E4E720684069C0434007DBD40020FA
:101E400070BD2DE9F0471E4690460D460446C1F38D
:101E50000747DDF8209026E0701C24D0FEF794FBA5
:101E6000A0EB0900B04200D8EEB92068012F16D0CF
:101E7000806925EA00000004000C12D000204045D3
:101E800011D1002044F8300F20216173A073216923
:101E900041F02001216120730120BDE8F0874069F5
:101EA000E7E70120EBE72068012F0AD0806925EAE7
:101EB00000000004000C06D000204045CCD00020DB
:101EC000EBE74069F3E70120F7E72DE9F047984693
:101ED00016460D4604464FF000094FF0200AC1F3A4
:101EE000074723E020684069C043400515D42068B7
:101EF000016841F40071016021686FF480604861FD
:101F0000C4F8309084F83DA084F83E90216C41F0F4
:101F10000401216484F83C9020E0701C06D0FEF798
:101F200033FBA0EB0800B04203D816B1012F1ED03E
:101F300020E02068012F14D0806925EA0000000409
:101F4000000C17D044F8309F84F80DA084F80E9050
:101F5000216941F02001216184F80C900120BDE845
:101F6000F087406925EA00000004000CEAD12068EF
:101F7000406901E02068806925EA00000004000C47
:101F8000B0D1ECE72DE9F04116460D460446002796
:101F90004FF0200829E04069C043C0060DD454F832
:101FA000301B6FF01000486144F80D7B04F81D8968
:101FB000A777206A2062277714E0FEF7E5FA801BF6
:101FC000A84200D88DB920684069C04340060CD5AE
:101FD00044F8307F84F80D80A773206940F020001A
:101FE000206127730120BDE8F08120684169C94361
:101FF0004906D0D40020F6E770B516460D460446D3
:102000001EE02046FFF7BAFD08B1012070BD681C34
:1020100016D0FEF7B9FA801BA84200D885B920680F
:102020004069C04300060BD5002044F8300F202142
:102030006173A073216941F0200121612073E4E7FD
:1020400020684069C0430006DBD4002070BD00005A
:1020500010B54FF08D4469B1082904D0102905D07E
:10206000182907D105E04FF08C4403E04FF08B4472
:1020700000E0044C00F0AAFE2146BDE8104000F04C
:10208000E3BD00009AA9AA4410B50A4C59B1082929
:1020900004D0102904D0182905D103E0064C02E031
:1020A000064C00E0064C00F091FE2146BDE81040D1
:1020B00000F0CABD000003430000834233330342F3
:1020C00033338341FEB501252148CDE900054FF4A6
:1020D000FA742B466B22D02102941E48FEF7E2FCD4
:1020E0000A20FEF759F91A4E0123761C0096CDE915
:1020F00001546B22D0211748FEF7D4FC0A20FEF7CA
:102100004BF90096CDE9015401231B22D02111483F
:10211000FEF7C8FC0A20FEF73FF90096CDE901540E
:1021200001231C22D0210B48FEF7BCFC0A20FEF73D
:1021300033F90096CDE9015401231922D021054835
:10214000FEF7B0FCBDE8FE400A20FEF725B900000E
:102150003C000020400000202DE9F04186B00746F9
:10216000012503A8CDE9000590460E464FF4FA7408
:102170002B463B22D02102942448FEF765FB0DF14B
:102180000D00CDE9000501233C22D02102941F4817
:10219000FEF75AFB0DF10E00CDE9000501233D22AB
:1021A000D02102941948FEF74FFB0DF10F00CDE945
:1021B000000501233E22D02102941448FEF744FB7F
:1021C00004A8CDE9000501233F22D02102940F4845
:1021D000FEF73AFB0DF11100CDE900050123402285
:1021E000D02102940948FEF72FFBBDF80C0040BA3D
:1021F0003880BDF80E0040BA3080BDF8100040BAFB
:10220000A8F8000006B0BDE8F08100004000002002
:102210002DE9F04186B00746012503A8CDE9000568
:1022200090460E464FF4FA742B464322D021029476
:102230002448FEF709FB0DF10D00CDE9000501234F
:102240004422D02102941F48FEF7FEFA0DF10E0041
:10225000CDE9000501234522D02102941948FEF75B
:10226000F3FA0DF10F00CDE9000501234622D0213C
:1022700002941448FEF7E8FA04A8CDE9000501230A
:102280004722D02102940F48FEF7DEFA0DF111002B
:10229000CDE9000501234822D02102940948FEF728
:1022A000D3FABDF80C0040BA3880BDF80E0040BA31
:1022B0003080BDF8100040BAA8F8000006B0BDE8B4
:1022C000F0810000400000202DE9F04387B0154662
:1022D000DDE90E890E4607461C4602AA01A968469A
:1022E000FFF73AFF05AA04A903A8FFF791FF002111
:1022F000BDF90000FFF7ACFE38600021BDF9040015
:10230000FFF7A6FE30600021BDF90800FFF7A0FE30
:1023100028600021BDF90C00FFF7B6FE2060002107
:10232000BDF91000FFF7B0FEC8F800000021BDF9AC
:102330001400FFF7A9FEC9F8000007B0BDE8F0835C
:102340000D4808B5816941F020018161816901F082
:1023500020010091816941F004018161816901F0EE
:1023600004010091816941F008018161806900F0F8
:102370000800009008BD00000010024010B50D4C90
:102380000B484FF4804120600B4860600020A06043
:10239000C4E903016061A061E06120622046FEF7AC
:1023A000F9F808B1FDF775FF94F83D0010BD000085
:1023B0000054004040000020A086010010B586B007
:1023C0000024174800940194029403940494134940
:1023D0000594016041F61F41C0E901143121C0E9B3
:1023E000031444618461FEF789FF08B1FDF751FFD2
:1023F0004FF48050009069460948FEF7F7FF08B196
:10240000FDF747FF049404A905480594FEF742FF31
:10241000002801D0FDF73DFF06B010BD002C0140A3
:102420009400002010B58CB024216846FDF7CCFE46
:102430000024154809944FF080410A94C0E9001423
:102440004FF6FF71C0E90241046184610320CDE9C8
:1024500000040120CDE902040494CDE9054007946D
:10246000694609480894FFF72FF808B1FDF711FFF6
:10247000099409A904480A94FEF70CFF002801D02A
:10248000FDF707FF0CB010BDDC00002010B58CB0CC
:1024900024216846FDF798FE002416480994144943
:1024A0000A94C0E900144FF6FF71C0E902410461CB
:1024B00084610320CDE900040120CDE902040494E5
:1024C000CDE90540079469460A480894FEF7FCFFE9
:1024D00008B1FDF7DEFE099409A906480A94FEF743
:1024E000D9FE002801D0FDF7D4FE0CB010BD0000CD
:1024F00000080040240100200C4810B50A49016082
:102500004FF416514160002181600C22C160C0E986
:1025100004128161C161FFF79BFA002803D0BDE876
:102520001040FDF7B6BE10BD004800406C01002011
:10253000FEE7FEE710B5A0B080216846FDF744FE37
:1025400000240021204600F0E7F88021684600F0D2
:1025500017F9641CE4B2082CF3D320B010BD0000BE
:1025600010B50224202000F0F7F8204600F0F4F81F
:102570001F4804703F24A82000F0EEF8204600F029
:10258000EBF80024D32000F0E7F8204600F0E4F850
:10259000402000F0E1F8A12000F0DEF8C82000F0B3
:1025A000DBF80021084600F0A1F87F24812000F02C
:1025B000D3F8204600F0D0F8A42000F0CDF8A620F3
:1025C00000F0CAF8D52000F0C7F8802000F0C4F869
:1025D0008D2000F0C1F8142000F0BEF80021012089
:1025E00000F084F8BDE81040AF2000F0B5B800005E
:1025F00034000020F0B589B0002423466D4604AEB7
:10260000002A08DA4FF02D048DF800404FF0010445
:10261000C2F1000215E006D14FF030028DF8002023
:102620004FF001041BE04FF00A0792FBF7FC07FB99
:102630001C2C92FBF7F20CF1300C06F803C003F1EE
:102640000103002AEFD108E006EB0302A3F1010326
:1026500012F8012C2A5504F10104002BF4D14FF09B
:1026600000022A552A4600F003F809B02046F0BDC2
:102670002DE9F04117460E46044600250BE0314691
:10268000204600F00FF8641CE4B20F2C02D900249D
:10269000B61CF6B26D1C7A5D002AF0D12846BDE862
:1026A000F081000070B51546C206160E0C460729CB
:1026B00018D80F2816D83146204600F02DF80A48C1
:1026C000082100EB0510054600F05AF8641CE0B242
:1026D000314600F021F805F10800BDE870400821FE
:1026E00000F04EB870BD0000BC2E000870B50C465E
:1026F000050001D0012D0ED10CB1012C0BD1DA2037
:1027000000F02AF8280100EB8410BDE87040801C1E
:10271000C0B200F021B870BD70B50E4D0C462978DE
:10272000022905D1072803D8B030C0B200F014F850
:10273000287802280CD17F2C0AD804F00F0000F072
:102740000BF8102000EB1410BDE8704000F004B846
:1027500070BD0000340000201CB500218DF804106D
:102760008DF805004FF4FA7000900448022301AA86
:1027700078214068FDF7D2FF1CBD00003400002026
:102780000EB54FF4FA728DE8070004480123402289
:1027900078214068FEF786F90EBD00003400002065
:1027A00070477047FEF75ABA30B58FB02821684697
:1027B000FDF70AFD14210AA8FDF706FD012001041A
:1027C00000248DE8130004904FF4E010CDE90810C8
:1027D000022507956846FEF7BBFB08B172B6FEE717
:1027E0000F20CDE90A054FF48060CDE90C400221AD
:1027F0000AA80E94FEF7CAFA002801D072B6FEE7C6
:102800000FB030BD704700000148FEF741BF000027
:1028100094000020F0B50268194C1A4D1A4E4FF082
:102820008047A04205D0B84203D0A84201D0B042B0
:1028300003D122F070034A681A43A04205D0B8427F
:1028400003D0A84201D0B04203D122F44073CA6839
:102850001A434B6922F080021A4302608A68C262FE
:102860000A688262A04201D10969016301214161C4
:102870000169C90703D0016921F001010161F0BDBF
:10288000002C0140000400400008004010B501F099
:102890001F010123046A8B409C430462036A8A403F
:1028A0001343036210BD10B5846842EA032224F486
:1028B0007F440A432243826010BD826822F0700286
:1028C0000A4342F007018160704710B5046A036A49
:1028D00023F001030362836923F0F00343EA021348
:1028E00024F00A020A438361026210BD10B5036A34
:1028F000046A24F010040462846923F0A00324F421
:10290000704444EA023243EA01118261016210BD5F
:1029100010B5406A0021C185C184FEF761FF10BD7A
:1029200001680C3151E8002F22F4907241E8002335
:10293000002BF5D10168143151E8002F22F001027B
:1029400041E80023002BF5D1016B012909D1016871
:102950000C3151E8002F22F0100241E80023002B37
:10296000F5D1202180F8421000210163704708B59D
:1029700090F84210222901D0022008BD81684FF44E
:102980008053994201D1026922B1826A99421BD0D7
:1029900049B10AE00268816A5268C2F308020A80FB
:1029A000816A891C08E0016971B10168496801F018
:1029B0007F011170816A491C8162C18D491E090421
:1029C000090CC18503D01BE001684968F1E7016883
:1029D000CA6822F02002CA600168CA6822F48072C4
:1029E000CA6001684A6922F001024A61202180F828
:1029F000421000214163026B012A03D0FFF7A8F8BF
:102A0000002008BD016301680C3151E8002F22F05D
:102A1000100241E80023002BF5D101680A68D206B4
:102A200002D50A6849680091818DFEF7D8FEE7E774
:102A300070B5044600680169E26821F44051114311
:102A40000161A16820690143606901432068C2688F
:102A500041F20C639A430A43C26020684169A2694B
:102A600021F44071114341611E492068884202D11E
:102A7000FEF738FA01E0FEF725FA00EBC00101EBA2
:102A80000011606864228000B1FBF0F3B3FBF2F345
:102A90006FF018067343B1FBF0F5B1FBF0F605EBF0
:102AA0008305322303EB0515B5FBF2F5B6FBF2F611
:102AB00005F0F00505EB0615B1FBF0F6B1FBF0F003
:102AC000B0FBF2F06FF01801484306EB800003EB17
:102AD0000010B0FBF2F0216800F00F00284488607D
:102AE00070BD00000038014081628285C2850021EE
:102AF0004164222180F84210016921B10168CA684D
:102B000042F48072CA6001684A6942F001024A6177
:102B10000068C16841F02001C160002070470000DA
:102B20000148FEF75FBE00006C010020FEE70907C8
:102B3000090E002804DB00F1E02080F80014704743
:102B400000F00F0000F1E02080F8141D704710B570
:102B5000426884681346521C944200D100220468E3
:102B6000944204D0C468E1544260002010BD4FF08C
:102B7000FF3010BD10B53C210848FEF73FFD3C2159
:102B80000748FEF73BFD07496FF00100096808613F
:102B9000BDE810400348FEF7FDBB0000DC0000204C
:102BA0002401002094000020016847F6FF72486A63
:102BB0004A62801A704700001CB5FEF757F8FFF70D
:102BC000F3FDFFF7BDFBFFF7D9FBFFF72BFCFFF78A
:102BD0005DFCFFF791FCFFF7F1FBFFF7CBFF0A204D
:102BE000FDF7DAFBFFF7BCFC0A20FDF7D5FBFFF78A
:102BF000A1FC0A20FDF7D0FBFFF764FA0A20FDF7DD
:102C0000CBFB0C4C0C4E251F0A4BCDE90054083B66
:102C10001A1F111F081FFFF757FB08A202210020EF
:102C2000FFF726FD401CC0B202213268FFF7E2FC2C
:102C3000EAE70000140000202C0000206C65667498
:102C400053706565640000004FF47F0C1CEAD012DD
:102C50001EBF1CEAD11392EA0C0F93EA0C0F00F08E
:102C6000858090EA010F48BF42F4807240F4000C66
:102C700041F400002CF07F4120F07F4000B58142FC
:102C8000A2EB03020FF2081CACEB504EC0F10000A7
:102C90009EF800E04FEA4E0E00FB0EFC38BF4900E4
:102CA0004FEA2C1C02F5FA020CFB0EF34FEACE1E83
:102CB0004FEA112C4FEAC1210EEB635E42EB224238
:102CC0000EFB0CFC4FEA1C5300FB03114FEA112CC6
:102CD0004FEA01310EFB0CFC4FEADC4C00FB0C11FF
:102CE000C14228BF09184CEB03335DF804EB10EB2D
:102CF000410143EBC250B2F57C0F38BF704729D574
:102D000012F0F00F1CBF00F1C04000F0004070470F
:102D1000008182838485868788898B8C8D8E8F91B4
:102D20009293959697999A9C9D9FA0A2A3A5A7A8D8
:102D3000AAACAEB0B2B3B5B7B9BCBEC0C2C5C7C904
:102D4000CCCED1D4D7D9DCDFE2E6E9ECF0F3F7FA68
:102D5000FE0000004FEA400C0CF1807CBCF17E4F7D
:102D600028BF7047B0F1C04000F08EB890EA010F64
:102D70000CEAD11348BF42F48072624538BF634504
:102D800007D213F47F0F16D080EA010000F0004054
:102D9000704710B500F032F8097EFC3E00F005B82F
:102DA00080EA010000F00040704780EA010000F076
:102DB000004000F069B812F47F0F04BF024870476A
:102DC00080EA010000F060B80000C07F10F0004110
:102DD00048BF4042B0FA80F310FA03F2C3F19D03FA
:102DE0000BD051EAC35101EB1220530638BF704794
:102DF00000F1010008BF20F0010070470EF1020E43
:102E00002EF0030E5EF8044B244204D44FEA410234
:102E1000B2F17F4F11D84FEA4003B3F17F4F0CD886
:102E20000ED14FEAD07CB2F17F4F0CEB4C0C0CF181
:102E3000020C08BF4CEBD17C04E04FF0080C01E021
:102E40004FEAD17C0CEB4C0324FA03F404F00704A2
:102E5000B4F1040C06D20EEB840CBDE810404CF02B
:102E6000010C6047DFE80CF0070802024FF0004059
:102E7000A0F5800010BD0846420018BFD2F1807254
:102E800088BF00F0004010BDFF2141EAD050C005CE
:102E90007047010202030405060708090A0B0C0D1E
:102EA0000E0F1010000000000000000001020304DB
:102EB00006070809000000000102030400000000EA
:102EC00000000000000000000000000000FE020200
:102ED00002020202003F20202020202000000000EB
:102EE00000000000000000000000000000FE0202E0
:102EF00002020202003F20202020202000FE0202C9
:102F000002020202003F20202020202000FE0202B8
:102F100002020202003F20202020202000FE0202A8
:102F200002020202003F20202020202000FE020298
:102F300002020202003F20202020202000FE020288
:102F400002020202003F202020202020000000007A
:102F50000000000000000000000000000000000071
:102F60000000000000000000000000000000000061
:102F700000000000000000000000000000FE02024F
:102F800002020202003F20202020202000FE020238
:102F900002020202003F20202020202000FE020228
:102FA00002020202003F20202020202000FE020218
:102FB00002020202003F20202020202000FE020208
:102FC00002020202003F20202020202000FE0202F8
:102FD00002020202003F20202020202000FE0202E8
:102FE00002020202003F20202020202000FE0202D8
:102FF00002020202003F20202020202000FE0202C8
:1030000002020202003F20202020202000FE0202B7
:1030100002020202003F20202020202000FE0202A7
:1030200002020202003F20202020202000FE020297
:1030300002020202003F20202020202000FE020287
:1030400002020202003F20202020202000FE020277
:1030500002020202003F20202020202000FE020267
:1030600002020202003F20202020202000FE020257
:1030700002020202003F2020202020200000000049
:103080000000000000000000000000000000000040
:103090000000000000000000000000000000000030
:1030A0000000000000000000000000000000000020
:1030B0000000000000000000000000000000000010
:1030C000000000000000000000000000000000F808
:1030D00000000000000000330000000000100C029F
:1030E000100C020000000000000000000040C0784A
:1030F00040C0780000043F04043F0400007088884A
:10310000FC08300000182020FF211E00F008F0808D
:103110006018000000310C031E211E0000F008881A
:10312000700000001E21232C1927211000120E0010
:10313000000000000000000000000000000000E0AF
:1031400018040200000000071820400000020418C4
:10315000E00000000040201807000000404080F020
:10316000804040000202010F010202000000000046
:10317000E0000000000101010F010101000000005A
:10318000000000000090700000000000000000003F
:103190000000000000010101010101000000000029
:1031A00000000000003030000000000000000000BF
:1031B000C0380400006018070000000000E010089C
:1031C0000810E000000F102020100F000000101069
:1031D000F8000000000020203F20200000700808B8
:1031E0000808F000003028242221300000300808B0
:1031F000088870000018202121221C000000804057
:1032000030F8000000060524243F242400F88888B4
:10321000880808000019202020110E0000E0108806
:1032200088900000000F112020201F0000180808BF
:10323000886818000000003E010000000070880847
:1032400008887000001C222121221C0000F00808C0
:103250000810E0000001122222110F00000000C03F
:10326000C0000000000000303000000000000080BE
:1032700000000000000000E00000000000008040AE
:103280002010080000010204081020000040404007
:10329000404040000002020202020200000810202A
:1032A000408000000020100804020100007048085F
:1032B000088870000000003037000000C030C828C7
:1032C000E810E000071827282F2817000000C03852
:1032D000E0000000203C23020227382008F88888FC
:1032E00088700000203F202020110E00C030080808
:1032F00008083800071820202010080008F80808DF
:103300000810E000203F202020100F0008F88888D7
:10331000E8081000203F20202320180008F88888A3
:10332000E8081000203F200003000000C03008081B
:103330000838000007182020221E020008F80800A4
:103340000008F808203F210101213F20000808F86B
:10335000080800000020203F20200000000008088E
:10336000F8080800C08080807F00000008F888C04E
:1033700028180800203F20012638200008F80800FF
:1033800000000000203F20202020300008F8F80036
:10339000F8F80800203F013E013F200008F830C047
:1033A0000008F808203F200007183F00E010080838
:1033B0000810E0000F10202020100F0008F8080867
:1033C0000808F000203F210101010000E01008087A
:1033D0000810E0000F10282830504F0008F88888A7
:1033E00088887000203F2000030C3020007088087F
:1033F000080838000038202121221C00180808F88D
:10340000080818000000203F2000000008F808000D
:103410000008F808001F202020201F0008788800DE
:1034200000C83808000007380E01000008F800F84E
:1034300000F8080000033E013E0300000818688001
:103440008068180820302C03032C30200838C8006E
:10345000C83808000000203F2000000010080808BD
:10346000C83808002038262120201800000000FE5F
:10347000020202000000007F40404000000438C00B
:1034800000000000000000010638C0000002020237
:10349000FE000000004040407F00000000000402E9
:1034A0000204000000000000000000000000000016
:1034B0000000000080808080808080800002020404
:1034C00000000000000000000000000000008080FC
:1034D0008000000000192424123F200010F000801A
:1034E00080000000003F112020110E00000000802D
:1034F00080800000000E112020201100000080803C
:103500008090F000001F202020103F2000008080CD
:1035100080800000001F242424241700008080E005
:10352000909020000020203F20200000000080809C
:1035300080808000006B94949493600010F0008071
:1035400080800000203F210000203F2000809898CC
:10355000000000000020203F20200000000000802C
:103560009898000000C08080807F000010F000006C
:1035700080808000203F240629302000001010F8B1
:10358000000000000020203F20200000808080807C
:1035900080808000203F20003F20003F808000800E
:1035A00080800000203F210000203F20000080801C
:1035B00080800000001F202020201F0080800080CD
:1035C0008000000080FF912020110E00000000808C
:1035D00080008000000E11202091FF8080808000FC
:1035E0008080800020203F2120000100000080809A
:1035F000808080000033242424241900008080E08F
:10360000808000000000001F20201000808000004B
:1036100000808000001F202020103F20808080003C
:103620008080800000030C300C030000808000804C
:1036300080008080010E300C0738060100808080F9
:10364000008080000020310E2E312000808080001C
:1036500000808080008186781806010000808080CC
:10366000808080000021302C2221300000000000EA
:1036700000FC020200000000013E4040000000008B
:10368000FF00000000000000FF0000000202FC003C
:103690000000000040403E01000000000002010266
:1036A0000204020000000000000000000000000012
:1036B000000000000000000000000000DC360008F0
:1036C0000000002040000000280100081C3700080E
:1036D00040000020E807000044010008000000004E
:1036E00000000000000000000000000000000000DA
:1036F00000000000000000000100000010000000B9
:103700000000000000127A0000000000000000002D
:0C371000020000004000002080000000CB
:04000005080000ED02
:00000001FF
